{
	"_format": "hh-sol-artifact-1",
	"contractName": "userMaps",
	"sourceName": "../userMaps.sol",
	"type": "json",
	"abi": [
		{
			"inputs": [
				{
					"internalType": "string",
					"name": "username",
					"type": "string"
				},
				{
					"internalType": "string",
					"name": "messageCID",
					"type": "string"
				}
			],
			"name": "addMessage",
			"outputs": [],
			"stateMutability": "nonpayable",
			"type": "function"
		},
		{
			"inputs": [
				{
					"internalType": "string",
					"name": "username",
					"type": "string"
				},
				{
					"internalType": "string",
					"name": "messageCID",
					"type": "string"
				}
			],
			"name": "addOutbox",
			"outputs": [],
			"stateMutability": "nonpayable",
			"type": "function"
		},
		{
			"inputs": [
				{
					"internalType": "string",
					"name": "username",
					"type": "string"
				},
				{
					"internalType": "string",
					"name": "profileCID",
					"type": "string"
				},
				{
					"internalType": "string",
					"name": "passHash",
					"type": "string"
				},
				{
					"internalType": "string",
					"name": "publicKey",
					"type": "string"
				}
			],
			"name": "createUser",
			"outputs": [],
			"stateMutability": "nonpayable",
			"type": "function"
		},
		{
			"inputs": [
				{
					"internalType": "string",
					"name": "username",
					"type": "string"
				}
			],
			"name": "retrieveMessages",
			"outputs": [
				{
					"internalType": "string[]",
					"name": "",
					"type": "string[]"
				}
			],
			"stateMutability": "view",
			"type": "function"
		},
		{
			"inputs": [
				{
					"internalType": "string",
					"name": "username",
					"type": "string"
				}
			],
			"name": "retrieveOutbox",
			"outputs": [
				{
					"internalType": "string[]",
					"name": "",
					"type": "string[]"
				}
			],
			"stateMutability": "view",
			"type": "function"
		},
		{
			"inputs": [
				{
					"internalType": "string",
					"name": "username",
					"type": "string"
				}
			],
			"name": "retrievePublicKey",
			"outputs": [
				{
					"internalType": "string",
					"name": "",
					"type": "string"
				}
			],
			"stateMutability": "view",
			"type": "function"
		},
		{
			"inputs": [
				{
					"internalType": "string",
					"name": "username",
					"type": "string"
				},
				{
					"internalType": "string",
					"name": "passHash",
					"type": "string"
				}
			],
			"name": "retrieveUserCID",
			"outputs": [
				{
					"internalType": "string",
					"name": "",
					"type": "string"
				}
			],
			"stateMutability": "view",
			"type": "function"
		}
	],
	"bytecode": "0x6080604052348015600f57600080fd5b506113f98061001f6000396000f3fe608060405234801561001057600080fd5b506004361061007d5760003560e01c8063631e0c691161005b578063631e0c69146100fe5780636f7fcddb1461011a578063b246493f14610136578063bc6fc0f5146101665761007d565b806318090dba146100825780631ba2848b146100b257806320a7471b146100ce575b600080fd5b61009c60048036038101906100979190610b43565b610196565b6040516100a99190610ccd565b60405180910390f35b6100cc60048036038101906100c79190610cef565b6102f8565b005b6100e860048036038101906100e39190610b43565b6103b8565b6040516100f59190610ccd565b60405180910390f35b61011860048036038101906101139190610cef565b61051a565b005b610134600480360381019061012f9190610d67565b6105da565b005b610150600480360381019061014b9190610cef565b610707565b60405161015d9190610e88565b60405180910390f35b610180600480360381019061017b9190610b43565b6108ce565b60405161018d9190610e88565b60405180910390f35b60606003826040516101a89190610ee6565b908152602001604051809103902060009054906101000a900460ff16610203576040517f08c379a00000000000000000000000000000000000000000000000000000000081526004016101fa90610f49565b60405180910390fd5b6002826040516102139190610ee6565b9081526020016040518091039020805480602002602001604051908101604052809291908181526020016000905b828210156102ed57838290600052602060002001805461026090610f98565b80601f016020809104026020016040519081016040528092919081815260200182805461028c90610f98565b80156102d95780601f106102ae576101008083540402835291602001916102d9565b820191906000526020600020905b8154815290600101906020018083116102bc57829003601f168201915b505050505081526020019060010190610241565b505050509050919050565b6003826040516103089190610ee6565b908152602001604051809103902060009054906101000a900460ff16610363576040517f08c379a000000000000000000000000000000000000000000000000000000000815260040161035a90610f49565b60405180910390fd5b6000826040516103739190610ee6565b9081526020016040518091039020819080600181540180825580915050600190039060005260206000200160009091909190915090816103b3919061117f565b505050565b60606003826040516103ca9190610ee6565b908152602001604051809103902060009054906101000a900460ff16610425576040517f08c379a000000000000000000000000000000000000000000000000000000000815260040161041c90610f49565b60405180910390fd5b6000826040516104359190610ee6565b9081526020016040518091039020805480602002602001604051908101604052809291908181526020016000905b8282101561050f57838290600052602060002001805461048290610f98565b80601f01602080910402602001604051908101604052809291908181526020018280546104ae90610f98565b80156104fb5780601f106104d0576101008083540402835291602001916104fb565b820191906000526020600020905b8154815290600101906020018083116104de57829003601f168201915b505050505081526020019060010190610463565b505050509050919050565b60038260405161052a9190610ee6565b908152602001604051809103902060009054906101000a900460ff16610585576040517f08c379a000000000000000000000000000000000000000000000000000000000815260040161057c90610f49565b60405180910390fd5b6002826040516105959190610ee6565b9081526020016040518091039020819080600181540180825580915050600190039060005260206000200160009091909190915090816105d5919061117f565b505050565b6003846040516105ea9190610ee6565b908152602001604051809103902060009054906101000a900460ff1615610646576040517f08c379a000000000000000000000000000000000000000000000000000000000815260040161063d9061129d565b60405180910390fd5b826001856040516106579190610ee6565b90815260200160405180910390209081610671919061117f565b5060016003856040516106849190610ee6565b908152602001604051809103902060006101000a81548160ff021916908315150217905550816004856040516106ba9190610ee6565b908152602001604051809103902090816106d4919061117f565b50806005856040516106e69190610ee6565b90815260200160405180910390209081610700919061117f565b5050505050565b60606003836040516107199190610ee6565b908152602001604051809103902060009054906101000a900460ff16610774576040517f08c379a000000000000000000000000000000000000000000000000000000000815260040161076b90610f49565b60405180910390fd5b816040516020016107859190610ee6565b604051602081830303815290604052805190602001206004846040516107ab9190610ee6565b90815260200160405180910390206040516020016107c99190611340565b604051602081830303815290604052805190602001201461081f576040517f08c379a0000000000000000000000000000000000000000000000000000000008152600401610816906113a3565b60405180910390fd5b60018360405161082f9190610ee6565b9081526020016040518091039020805461084890610f98565b80601f016020809104026020016040519081016040528092919081815260200182805461087490610f98565b80156108c15780601f10610896576101008083540402835291602001916108c1565b820191906000526020600020905b8154815290600101906020018083116108a457829003601f168201915b5050505050905092915050565b60606003826040516108e09190610ee6565b908152602001604051809103902060009054906101000a900460ff1661093b576040517f08c379a000000000000000000000000000000000000000000000000000000000815260040161093290610f49565b60405180910390fd5b60058260405161094b9190610ee6565b9081526020016040518091039020805461096490610f98565b80601f016020809104026020016040519081016040528092919081815260200182805461099090610f98565b80156109dd5780601f106109b2576101008083540402835291602001916109dd565b820191906000526020600020905b8154815290600101906020018083116109c057829003601f168201915b50505050509050919050565b6000604051905090565b600080fd5b600080fd5b600080fd5b600080fd5b6000601f19601f8301169050919050565b7f4e487b7100000000000000000000000000000000000000000000000000000000600052604160045260246000fd5b610a5082610a07565b810181811067ffffffffffffffff82111715610a6f57610a6e610a18565b5b80604052505050565b6000610a826109e9565b9050610a8e8282610a47565b919050565b600067ffffffffffffffff821115610aae57610aad610a18565b5b610ab782610a07565b9050602081019050919050565b82818337600083830152505050565b6000610ae6610ae184610a93565b610a78565b905082815260208101848484011115610b0257610b01610a02565b5b610b0d848285610ac4565b509392505050565b600082601f830112610b2a57610b296109fd565b5b8135610b3a848260208601610ad3565b91505092915050565b600060208284031215610b5957610b586109f3565b5b600082013567ffffffffffffffff811115610b7757610b766109f8565b5b610b8384828501610b15565b91505092915050565b600081519050919050565b600082825260208201905092915050565b6000819050602082019050919050565b600081519050919050565b600082825260208201905092915050565b60005b83811015610bf2578082015181840152602081019050610bd7565b60008484015250505050565b6000610c0982610bb8565b610c138185610bc3565b9350610c23818560208601610bd4565b610c2c81610a07565b840191505092915050565b6000610c438383610bfe565b905092915050565b6000602082019050919050565b6000610c6382610b8c565b610c6d8185610b97565b935083602082028501610c7f85610ba8565b8060005b85811015610cbb5784840389528151610c9c8582610c37565b9450610ca783610c4b565b925060208a01995050600181019050610c83565b50829750879550505050505092915050565b60006020820190508181036000830152610ce78184610c58565b905092915050565b60008060408385031215610d0657610d056109f3565b5b600083013567ffffffffffffffff811115610d2457610d236109f8565b5b610d3085828601610b15565b925050602083013567ffffffffffffffff811115610d5157610d506109f8565b5b610d5d85828601610b15565b9150509250929050565b60008060008060808587031215610d8157610d806109f3565b5b600085013567ffffffffffffffff811115610d9f57610d9e6109f8565b5b610dab87828801610b15565b945050602085013567ffffffffffffffff811115610dcc57610dcb6109f8565b5b610dd887828801610b15565b935050604085013567ffffffffffffffff811115610df957610df86109f8565b5b610e0587828801610b15565b925050606085013567ffffffffffffffff811115610e2657610e256109f8565b5b610e3287828801610b15565b91505092959194509250565b600082825260208201905092915050565b6000610e5a82610bb8565b610e648185610e3e565b9350610e74818560208601610bd4565b610e7d81610a07565b840191505092915050565b60006020820190508181036000830152610ea28184610e4f565b905092915050565b600081905092915050565b6000610ec082610bb8565b610eca8185610eaa565b9350610eda818560208601610bd4565b80840191505092915050565b6000610ef28284610eb5565b915081905092915050565b7f5573657220646f6573206e6f7420657869737400000000000000000000000000600082015250565b6000610f33601383610e3e565b9150610f3e82610efd565b602082019050919050565b60006020820190508181036000830152610f6281610f26565b9050919050565b7f4e487b7100000000000000000000000000000000000000000000000000000000600052602260045260246000fd5b60006002820490506001821680610fb057607f821691505b602082108103610fc357610fc2610f69565b5b50919050565b60008190508160005260206000209050919050565b60006020601f8301049050919050565b600082821b905092915050565b60006008830261102b7fffffffffffffffffffffffffffffffffffffffffffffffffffffffffffffffff82610fee565b6110358683610fee565b95508019841693508086168417925050509392505050565b6000819050919050565b6000819050919050565b600061107c6110776110728461104d565b611057565b61104d565b9050919050565b6000819050919050565b61109683611061565b6110aa6110a282611083565b848454610ffb565b825550505050565b600090565b6110bf6110b2565b6110ca81848461108d565b505050565b5b818110156110ee576110e36000826110b7565b6001810190506110d0565b5050565b601f8211156111335761110481610fc9565b61110d84610fde565b8101602085101561111c578190505b61113061112885610fde565b8301826110cf565b50505b505050565b600082821c905092915050565b600061115660001984600802611138565b1980831691505092915050565b600061116f8383611145565b9150826002028217905092915050565b61118882610bb8565b67ffffffffffffffff8111156111a1576111a0610a18565b5b6111ab8254610f98565b6111b68282856110f2565b600060209050601f8311600181146111e957600084156111d7578287015190505b6111e18582611163565b865550611249565b601f1984166111f786610fc9565b60005b8281101561121f578489015182556001820191506020850194506020810190506111fa565b8683101561123c5784890151611238601f891682611145565b8355505b6001600288020188555050505b505050505050565b7f5573657220616c72656164792065786973747300000000000000000000000000600082015250565b6000611287601383610e3e565b915061129282611251565b602082019050919050565b600060208201905081810360008301526112b68161127a565b9050919050565b600081546112ca81610f98565b6112d48186610eaa565b945060018216600081146112ef576001811461130457611337565b60ff1983168652811515820286019350611337565b61130d85610fc9565b60005b8381101561132f57815481890152600182019150602081019050611310565b838801955050505b50505092915050565b600061134c82846112bd565b915081905092915050565b7f496e636f72726563742050617373776f72640000000000000000000000000000600082015250565b600061138d601283610e3e565b915061139882611357565b602082019050919050565b600060208201905081810360008301526113bc81611380565b905091905056fea2646970667358221220797e3ad184566938d44c4ac2755fbfcc115a07807b745e889ec38955522bf27164736f6c634300081c0033",
	"linkReferences": {},
	"deployedLinkReferences": {}
}